:020000040000FA
:10000000406300200D41000031110100E14000007B
:10001000E1400000E1400000E1400000E14000005C
:10002000000000000000000000000000B9390000DE
:10003000E14000000000000051390000E1400000F4
:10004000453A0000453A0000453A0000453A0000B4
:10005000453A0000453A0000453A0000453A0000A4
:10006000453A0000453A0000453A0000453A000094
:10007000453A0000453A0000453A0000453A000084
:10008000453A0000453A0000453A0000453A000074
:10009000453A0000453A0000453A0000453A000064
:1000A000453A0000453A0000453A0000453A000054
:1000B000453A0000453A0000453A0000453A000044
:1000C000453A0000453A0000453A0000453A000034
:1000D000453A0000453A0000453A0000453A000024
:1000E000453A0000453A0000453A0000453A000014
:1000F000453A0000453A0000453A0000453A000004
:10010000453A0000453A0000453A0000453A0000F3
:10011000453A0000453A0000453A0000453A0000E3
:10012000453A0000453A0000453A0000453A0000D3
:10013000453A0000453A0000453A0000453A0000C3
:10014000453A0000453A0000453A0000453A0000B3
:10015000453A000081F0004102E000BF83F0004317
:1001600030B54FEA41044FEA430594EA050F08BF52
:1001700090EA020F1FBF54EA000C55EA020C7FEA16
:10018000645C7FEA655C00F0E2804FEA5454D4EB93
:100190005555B8BF6D420CDD2C4480EA020281EA5D
:1001A000030382EA000083EA010180EA020281EA95
:1001B0000303362D88BF30BD11F0004F4FEA0131E7
:1001C0004FF4801C4CEA113102D0404261EB4101F6
:1001D00013F0004F4FEA03334CEA133302D052427C
:1001E00063EB430394EA050F00F0A780A4F1010438
:1001F000D5F1200E0DDB02FA0EFC22FA05F2801872
:1002000041F1000103FA0EF2801843FA05F3594157
:100210000EE0A5F120050EF1200E012A03FA0EFCD6
:1002200028BF4CF0020C43FA05F3C01851EBE37100
:1002300001F0004507D54FF0000EDCF1000C7EEB1D
:1002400000006EEB0101B1F5801F1BD3B1F5001F5B
:100250000CD349085FEA30004FEA3C0C04F101047A
:100260004FEA445212F5800F80F09A80BCF1004FA3
:1002700008BF5FEA500C50F1000041EB045141EA25
:10028000050130BD5FEA4C0C404141EB0101013CEE
:1002900028BFB1F5801FE9D291F0000F04BF0146DD
:1002A0000020B1FA81F308BF2033A3F10B03B3F1AF
:1002B00020020CDA0C3208DD02F1140CC2F10C023F
:1002C00001FA0CF021FA02F10CE002F11402D8BF9D
:1002D000C2F1200C01FA02F120FA0CFCDCBF41EA69
:1002E0000C019040E41AA2BF01EB0451294330BD38
:1002F0006FEA04041F3C1CDA0C340EDC04F1140415
:10030000C4F1200220FA04F001FA02F340EA0300EB
:1003100021FA04F345EA030130BDC4F10C04C4F131
:10032000200220FA02F001FA04F340EA0300294611
:1003300030BD21FA04F0294630BD94F0000F83F45B
:10034000801306BF81F480110134013D4EE77FEA3E
:10035000645C18BF7FEA655C29D094EA050F08BF8A
:1003600090EA020F05D054EA000C04BF194610466B
:1003700030BD91EA030F1EBF0021002030BD5FEAAF
:10038000545C05D14000494128BF41F0004130BDD7
:1003900014F580043CBF01F5801130BD01F000452B
:1003A00045F0FE4141F470014FF0000030BD7FEA9E
:1003B000645C1ABF194610467FEA655C1CBF0B4699
:1003C000024650EA013406BF52EA033591EA030FB0
:1003D00041F4002130BD00BF90F0000F04BF0021A8
:1003E000704730B54FF4806404F132044FF00005DB
:1003F0004FF0000150E700BF90F0000F04BF002154
:10040000704730B54FF4806404F1320410F00045B9
:1004100048BF40424FF000013EE700BF42004FEAB4
:10042000E2014FEA31014FEA02701FBF12F07F4331
:1004300093F07F4F81F06051704732F07F4208BFE8
:10044000704793F07F4F04BF41F40021704730B5EF
:100450004FF4607401F0004521F000411CE700BF3B
:1004600050EA010208BF704730B54FF000050AE0BE
:1004700050EA010208BF704730B511F0004502D5BF
:10048000404261EB41014FF4806404F132045FEAC1
:10049000915C3FF4D8AE4FF003025FEADC0C18BF6A
:1004A00003325FEADC0C18BF033202EBDC02C2F15C
:1004B000200300FA03FC20FA02F001FA03FE40EAEE
:1004C0000E0021FA02F11444BDE600BF70B54FF0F2
:1004D000FF0C4CF4E06C1CEA11541DBF1CEA1355D0
:1004E00094EA0C0F95EA0C0F00F0DEF82C4481EA38
:1004F000030621EA4C5123EA4C5350EA013518BF58
:1005000052EA033541F4801143F4801338D0A0FB44
:1005100002CE4FF00005E1FB02E506F00042E0FBF1
:1005200003E54FF00006E1FB03569CF0000F18BFF7
:100530004EF0010EA4F1FF04B6F5007F64F540749F
:1005400004D25FEA4E0E6D4146EB060642EAC62132
:1005500041EA55514FEAC52040EA5E504FEACE2E9F
:10056000B4F1FD0C88BFBCF5E06F1ED8BEF1004FA2
:1005700008BF5FEA500E50F1000041EB045170BD1E
:1005800006F0004646EA010140EA020081EA030162
:10059000B4EB5C04C2BFD4EB0C0541EA045170BD5E
:1005A00041F480114FF0000E013C00F3AB8014F1D8
:1005B000360FDEBF002001F0004170BDC4F1000421
:1005C000203C35DA0C341BDC04F11404C4F12005A2
:1005D00000FA05F320FA04F001FA05F240EA0200FD
:1005E00001F0004221F0004110EBD37021FA04F633
:1005F00042EB06015EEA430E08BF20EAD37070BDED
:10060000C4F10C04C4F1200500FA04F320FA05F04B
:1006100001FA04F240EA020001F0004110EBD3704D
:1006200041F100015EEA430E08BF20EAD37070BDBD
:10063000C4F1200500FA05F24EEA020E20FA04F396
:1006400001FA05F243EA020321FA04F001F0004145
:1006500021FA04F220EA020000EBD3705EEA430EB6
:1006600008BF20EAD37070BD94F0000F0FD101F0E5
:100670000046400041EB010111F4801F08BF013C1E
:10068000F7D041EA060195F0000F18BF704703F05C
:100690000046520043EB030313F4801F08BF013DE3
:1006A000F7D043EA0603704794EA0C0F0CEA13559F
:1006B00018BF95EA0C0F0CD050EA410618BF52EA59
:1006C0004306D1D181EA030101F000414FF000005F
:1006D00070BD50EA410606BF1046194652EA43066D
:1006E00019D094EA0C0F02D150EA013613D195EAE1
:1006F0000C0F05D152EA03361CBF104619460AD129
:1007000081EA030101F0004141F0FE4141F4700132
:100710004FF0000070BD41F0FE4141F4780170BD22
:1007200070B54FF0FF0C4CF4E06C1CEA11541DBF87
:100730001CEA135594EA0C0F95EA0C0F00F0A7F889
:10074000A4EB050481EA030E52EA03354FEA0131B6
:1007500000F088804FEA03334FF0805545EA1313C9
:1007600043EA12634FEA022245EA111545EA106591
:100770004FEA00260EF000419D4208BF964244F128
:10078000FD0404F5407402D25B084FEA3202B61A47
:1007900065EB03055B084FEA32024FF480104FF41B
:1007A000002CB6EB020E75EB030E22BFB61A75468F
:1007B00040EA0C005B084FEA3202B6EB020E75EB22
:1007C000030E22BFB61A754640EA5C005B084FEA8A
:1007D0003202B6EB020E75EB030E22BFB61A754657
:1007E00040EA9C005B084FEA3202B6EB020E75EB62
:1007F000030E22BFB61A754640EADC0055EA060E23
:1008000018D04FEA051545EA16754FEA06164FEA65
:10081000C30343EA52734FEAC2025FEA1C1CC0D111
:1008200011F4801F0BD141EA00014FF000004FF09E
:10083000004CB6E711F4801F04BF01430020B4F15F
:10084000FD0C88BFBCF5E06F3FF6AFAEB5EB030C17
:1008500004BFB6EB020C5FEA500C50F1000041EB14
:10086000045170BD0EF0004E4EEA113114EB5C04E1
:10087000C2BFD4EB0C0541EA045170BD41F48011B4
:100880004FF0000E013C90E645EA060E8DE60CEABC
:10089000135594EA0C0F08BF95EA0C0F3FF43BAFD9
:1008A00094EA0C0F0AD150EA01347FF434AF95EA90
:1008B0000C0F7FF425AF104619462CE795EA0C0F74
:1008C00006D152EA03353FF4FDAE1046194622E741
:1008D00050EA410618BF52EA43067FF4C5AE50EA1B
:1008E00041047FF40DAF52EA43057FF4EBAE12E70B
:1008F0004FEA410212F5001215D211D56FF4787348
:10090000B3EB625212D94FEAC12343F0004343EAEA
:10091000505311F0004F23FA02F018BF40427047C5
:100920004FF00000704750EA013005D111F000404F
:1009300008BF6FF0004070474FF00000704700BFE5
:1009400053B94AB9002908BF00281CBF4FF0FF3136
:100950004FF0FF3000F00CB8ADF1080C6DE904CE9B
:1009600000F008F8DDF804E0DDE9022304B0704788
:10097000704700BF2DE9F04786468C460846089E22
:10098000154674461946002B40F0C1808542B2FAE4
:1009900082F245D94AB1C2F1200300FA02FC954027
:1009A00094402EFA03F343EA0C0C4FEA154EA8B21A
:1009B000230CBCFBFEF80EFB18CC08FB00F943EA45
:1009C0000C43994528D9EB1808F1FF3704D2994513
:1009D00002D9A8F102072B44A3EB0903A4B2B3FB8D
:1009E000FEFC0EFB1C330CFB00F044EA0344A04267
:1009F00014D92C190CF1FF3304D2A04202D9ACF166
:100A000002032C44241A43EA07401EB1D4400023B9
:100A100034607360BDE8F0874746DDE76346F1E781
:100A200092BB431B01214FEA154EAFB2200CB3FB22
:100A3000FEFC0EFB1C330CFB07F840EA0343984511
:100A400061D9EB180CF1FF3004D2984502D9ACF112
:100A500002002B44A3EB0803A4B2B3FBFEFC0EFB85
:100A60001C330CFB07F744EA0344A7424DD92C1969
:100A70000CF1FF3304D2A74202D9ACF102032C449B
:100A8000E41B43EA0040C0E7C2F1200395409440D4
:100A900020FA03F12EFA03F34FEA154E9040AFB25D
:100AA0000343B1FBFEFC0EFB1C10190C0CFB07F8FA
:100AB00041EA0041884522D969180CF1FF3004D27F
:100AC000884502D9ACF102002944A1EB08019BB290
:100AD000B1FBFEFC0EFB1C110CFB07F743EA0143C4
:100AE0009F420ED9EB180CF1FF3104D29F4202D97C
:100AF000ACF102012B44DB1B41EA004193E7604665
:100B0000E3E76146F7E76046A4E76346B8E7834258
:100B100006D916B9002108467CE7C6E900E0F9E7E6
:100B2000B3FA83F78FB9834201D3724508D8BEEB7D
:100B3000020460EB030301209C461EB9002169E713
:100B40003846FAE7C6E9004CF8E7C7F1200CBB408D
:100B50000EFA07F522FA0CF42EFA0CF1BA401C43F7
:100B600020FA0CF3B8404FEA144901431FFA84FEFF
:100B7000B3FBF9F809FB18300B0C08FB0EFA43EA3B
:100B800000439A4540D9E31808F1FF3004D29A4552
:100B900002D9A8F102002344A3EB0A0389B2B3FBF4
:100BA000F9F809FB183308FB0EFE41EA03418E45B4
:100BB0002CD9611808F1FF3304D28E4502D9A8F16F
:100BC0000203214443EA0040A1EB0E01A0FB02987E
:100BD0004145CE46434602D306D14D4504D20138A5
:100BE000B9EB020E68EB0403002EA7D0B5EB0E02A2
:100BF00061EB030101FA0CFC22FA07F3F9404CEA1D
:100C00000303C6E9003199E74046C5E74346D9E703
:100C100010F8012B11F8013B012A28BF9A42F7D0A6
:100C2000D01A7047034611F8012B03F8012B002A54
:100C3000F9D17047034613F8012B002AFBD1181A8B
:100C40000138704708B504480EF060FDBDE8084063
:100C5000012012F012B800BF6C55010008B521B197
:100C6000BDE8084005480EF051BD05480EF04EFDA8
:100C7000BDE80840012011F0FDBF00BF865501000E
:100C8000A25501007FB50E480EF040FD0D480EF054
:100C90003DFD00250C4C0D4E63690135039323691E
:100CA00029460293E36830460193A3680093636882
:100CB00054F8182B0EF02AFD062DEDD104B070BDAE
:100CC000AD550100C255010038190020DE55010064
:100CD0000623013803FB0011034A52F82130013387
:100CE00042F82130704700BF381900202DE9F04F3D
:100CF0008346B64C89B020681546ABEB00008A46A7
:100D0000FFF77AFB064660680F46AAEB0000FFF784
:100D100073FB8046A0688946281AFFF76DFB3246B0
:100D2000CDE900013B4630463946FFF7CFFB42464E
:100D300006460F464B4640464946FFF7C7FB02466C
:100D40000B4630463946FFF70BFADDE9002306462D
:100D50000F4610461946FFF7B9FB02460B463046D0
:100D60003946FFF7FDF90EF067FBFFF7C1FD029072
:100D7000E068ABEB0000FFF73FFB80462069894647
:100D8000AAEB0000FFF738FB064660690F46281AF9
:100D9000FFF732FB4246CDE900014B46404649464B
:100DA000FFF794FB3246804689463B46304639463B
:100DB000FFF78CFB02460B4640464946FFF7D0F949
:100DC000DDE9002306460F4610461946FFF77EFB75
:100DD00002460B4630463946FFF7C2F90EF02CFBAF
:100DE000FFF786FD0390A069ABEB0000FFF704FB63
:100DF0008046E0698946AAEB0000FFF7FDFA064647
:100E0000206A0F46281AFFF7F7FA4246CDE900019B
:100E10004B4640464946FFF759FB324680468946D5
:100E20003B4630463946FFF751FB02460B464046EB
:100E30004946FFF795F9DDE9002306460F461046BF
:100E40001946FFF743FB02460B4630463946FFF78B
:100E500087F90EF0F1FAFFF74BFD0490606AABEBF7
:100E60000000FFF7C9FA8046A06A8946AAEB000095
:100E7000FFF7C2FA0646E06A0F46281AFFF7BCFAE7
:100E80004246CDE900014B4640464946FFF71EFB6E
:100E90003246804689463B4630463946FFF716FBC8
:100EA00002460B4640464946FFF75AF9DDE9002362
:100EB00006460F4610461946FFF708FB02460B464A
:100EC00030463946FFF74CF90EF0B6FAFFF710FD41
:100ED0000590206BABEB0000FFF78EFA8046606B4D
:100EE0008946AAEB0000FFF787FA0646A06B0F467B
:100EF000281AFFF781FA4246CDE900014B464046E9
:100F00004946FFF7E3FA3246804689463B4630467B
:100F10003946FFF7DBFA02460B4640464946FFF7E3
:100F20001FF9DDE9002306460F4610461946FFF774
:100F3000CDFA02460B4630463946FFF711F90EF05E
:100F40007BFAFFF7D5FC0690E06BABEB0000FFF7F8
:100F500053FA8046206C8946AAEB0000FFF74CFA52
:100F60000646606C0F46281AFFF746FA42460446CA
:100F70000D464B4640464946FFF7A8FA32468046A2
:100F800089463B4630463946FFF7A0FA02460B46F3
:100F900040464946FFF7E4F8224606460F462B46F0
:100FA00020462946FFF792FA02460B46304639465C
:100FB000FFF7D6F80EF040FAFFF79AFC079002A868
:100FC0000EF032FB09B0BDE8F08F00BF3C020020FC
:100FD00073B5684600F046F965240A4EBDF8042052
:100FE000BDF80210BDF800003568FFF77FFE01462E
:100FF0002846FFF76DFE013CF0D102B0BDE870401D
:10100000FFF740BE2402002008B58B070DD5094B21
:101010001A785AB100221A70FFF7DAFF064A1368ED
:10102000062B0CBF01230133136008BD01221A7087
:10103000FBE700BF3237002024020020F0B589B062
:101040006D4602AF0226334B3E617B6100234FF4B5
:101050008651314807F1100201F002FE00F0D4F889
:1010600028B12E480EF052FB1C37BD46F0BD2C486F
:101070000AF04AFF044690B905F066F9C0B188B09D
:1010800002AA284BC2E90530032342F8103F4FF46F
:10109000C2512346204801F0E3FDAD46E4E7014696
:1010A00021480EF033FB214620480EF02FFBDBE7F2
:1010B0001F4806F08DFC1F4800F09CF8044610B154
:1010C00001461D48F1E71D4BC7E904634FF4865103
:1010D000034607F11002104801F0C2FD0123324619
:1010E00000931749174B184805F01EFE034628B118
:1010F00088B002AA1549C2E90510C5E7144AC7E934
:1011000004624FF48651044807F1100201F0A8FD73
:10111000AAE700BF00560100084B01000F5601006E
:1011200009100000665601002A56010049560100C8
:10113000100200200802002086560100A35601007C
:10114000B04C0100A84C010028020020BA56010052
:10115000E05601008B1E59425941014B19707047EE
:10116000343700204B1E59425941014B19707047CA
:101170003537002008B5012BBDF808100CD171B926
:101180000A4B1B680BB9012008BD1078012809D84B
:1011900000F001009847F6E76FF00C00F4E76FF0FD
:1011A0000600F1E76FF01200EEE700BFC81900205B
:1011B0002DE9FF411F460D4B054658680C46164663
:1011C00080B1D1F80C808047094B3246187001235A
:1011D000CDE90183BDF828302146009328463B46DF
:1011E00011F041F904B0BDE8F08100BFC81900203A
:1011F0003337002020B1034B02681A6042685A60FE
:1012000000207047C819002038B50025124C54F84A
:10121000060C12F058FC28B910480EF077FA4FF07F
:10122000FF3038BD14F8013C63B154F8060C8368F4
:1012300021461B689847021E07DA294608480EF027
:1012400065FAECE76FF08502F7E70135032D04F14D
:101250001404DCD10020E4E77A4D0100235701009B
:10126000445701002DE9F04F142200268BB031467F
:1012700007460DEB020013F042FA0DF10E0307933F
:10128000022337480893B146B0460EF03FFA354680
:10129000B2464FF0140B334C637953B101222379DA
:1012A00002FA03F30693237C8DF82430637C8DF8D7
:1012B00025302068836805A95B689847011E10DA0D
:1012C00029480EF023FA0135032D04F11404E3D16B
:1012D0003846A7F800907E80A7F804800BB0BDE8E0
:1012E000F08F45B9D1466279BDF90E3042B91F4839
:1012F0000EF00CFAE7E7012D0CBF5646D046F2E798
:10130000E2791848042A08BF22680BFB05000ABFCF
:101310009268E1891189807A5943227C800644BF12
:1013200002F1FF32D2B20491A07904A90093019294
:1013300008F080FF0028009B08D1049B019A13410C
:101340009BB22DB9994601251434A5E7CFDBF7E709
:10135000012D03D11E46022514349DE79846B7E7B8
:1013600066570100744D0100745701008957010050
:101370002DE9F04F91B0009302F004030293C2F301
:10138000C2030133840705460E46DDF868900392D8
:10139000059340F0BB81041D30B1072909D86FF0D7
:1013A0001B0011B0BDE8F08F01F00706341DC6F137
:1013B0000806009B4FF000084FF0040A591E4FF03A
:1013C000FF3347460193C3465346CDF810800DB115
:1013D000009A22600598002800F3E8809848009A57
:1013E000824203D397488242C0F0E080039AA4EB84
:1013F000050E92074FEA9E0000F103810F2F00F2C5
:10140000B180002D00F0058107F140020DEB020CC8
:10141000019A0CF8200C0CF8102C04980130049060
:10142000E7E07A285DD84B280ED8472859D82928D4
:101430002DD8252852D054D820287AD02338D0F15E
:10144000000B4BEB000B74E04C382E2849D8DFE83A
:1014500000F07048484848484848484848484B4881
:101460004848484848484859484B4B595959704B87
:101470006D487048184B184848827F4B48484B4885
:101480007F0000204FF0000B4FF0040A38E00122EB
:101490002A38C0B202FA00F010EA0E0F49D110F05B
:1014A000625C2FD110EA020B43D06046013C5444E9
:1014B000B4FBFAF40AFB04F4002D61D0A3EB050C95
:1014C000A4446645FFF46BAF002868D1042B47D1D4
:1014D00059F8043B2360042304342AE0019A013ABA
:1014E00001924FF0000B24E011F8010C6C2834D16C
:1014F000002011F8023C83466C2BC5D14FF0080A3E
:101500005346D3E709F1070929F00709073424F006
:101510000704F9E802AB35B106982044B0423FF623
:101520003EAFC4E900AB4FF0000B08344FF0080A9F
:10153000534611F8010F002878D0BBF1000F7FF45B
:1015400070AF2528F5D14FF0010B019B01330193BA
:101550004FF0040AECE7584694E700208346A5E7DD
:10156000082B02D06FF015001BE709F1070929F0DD
:101570000709F9E80223C4E9002308230834D8E75F
:1015800068B9042B02D109F10409A4E7082BE9D1B9
:1015900009F1070929F0070909F10809EDE7059A9A
:1015A000013A059259F8042B009210E7039A90072C
:1015B00020D54FF0010CA4EB050E4FEA9E00BEF5BE
:1015C000007FCFD20F2FCDD8F5B107F140020DEB40
:1015D000020E019AC0B20EF8200C0EF8102CBCF1CD
:1015E000000F3FF41AAF60F07F000EF8200C08F1F6
:1015F00001080137C5F108024FF6DA7E043406927D
:1016000097E74FF0000CDAE7BCF1000F01D001368C
:10161000EFE7029802360028EBD10098CDE90631B9
:10162000FFF708FBDDE906310644E2E7631BB3F58B
:10163000806F97D245B9A6F10804E018B1E600BF63
:1016400034470100C07C0100029A9B0828602B707F
:101650009DF81030C2B1EB7085F80280B8F1000F30
:1016600005D0002208A8C5F1010C97420ED14FF019
:10167000000AC5F101030DF1200901930DF1300BB2
:10168000574512D1601B8CE66B70E5E710F8013B03
:10169000190608D504EB0C0E764503F07F03FFF422
:1016A0007EAE04F8013B0132DFE7B8F1000F03D052
:1016B00099F90020002A17DB029BD3B11AF80B20FE
:1016C00004F8012B0022019B981820448642FFF465
:1016D00066AE99F80000009904F8010B20460392C9
:1016E00013F000F8039A14440AF1010A09F1010900
:1016F000C6E799F8002055F822300093029B009825
:1017000045F82230FFF796FA421CDCE76FF00D0037
:1017100047E600BF2DE9F04F95B000AFBB61BB6F4E
:101720000446C3F3C0038A4690F802B07A623B6174
:1017300041B9457800780BEB80002044554517D817
:10174000A0EB040AE3787B61BBF1000F02D0BB6F12
:10175000D80716D47B6953BB7B6A1BB15146204620
:10176000BA699847554628465437BD46BDE8F08FBC
:10177000461C3046FFF75EFA013030440AF1010A98
:10178000DCE7237862683B629B00FB603B6AFA619E
:1017900004EB83097B6A002B40F0FF80C8460026DB
:1017A000554609EB0B0AD04551D1D94413E0BB6F24
:1017B0009907D1D5237899463B629B00FB6063680B
:1017C00004EB8909FB617B6A002B7AD15546BBF19A
:1017D000000F4FD15E46BB6F13F0050F0CBF4FF0EB
:1017E000020B4FF0010B7B6909EB430ABB6F03F05F
:1017F00002037B62D145B6D019F8021B19F8013CEF
:1018000054F82380AB4B984502D3AB4B984538D363
:101810003B69002B42D0F8690DF04FFF00283DD006
:10182000E8468AB06A46A54B5361FB69C2E90631B6
:101830004FF400731384A24B42F8103F00234FF47F
:101840001251A04801F00CFA023DC546D2E718F843
:10185000013B54F82300FFF7EDF9FB6F01303BB17A
:10186000D7F880309E423EBFFB6F23F8160001364A
:10187000054498E7BB6F13F004061CBF7E6AD94489
:10188000A9E73B6923B1F8690DF017FF0028C7D11C
:10189000BB6FDA0705D4A5EB0B05ABE77B6A002B22
:1018A000A8D04046FFF7C6F9FB6F43B1D7F88030A8
:1018B0009E423FBFFA6F431C22F8163001360544A2
:1018C00098E7BBF1000F6ED0BB6F13F004066DD02C
:1018D000D846002607F140005A46494612F002FF5A
:1018E0007B69D9445B007B607B6909EB4303BB6088
:1018F000BB6F03F002033B60BB684B4558D1B96F27
:101900006378B86F890748BF002106EB030258BF10
:101910004FEA5801C507D2B200F19A8010F0040FC7
:1019200014BF40460020FB616270A070E170204649
:10193000BA69F9687B6A9847051EFFF614AF3B6ADF
:1019400041462370FB69BA6963707B6984F802B011
:10195000E37007F140007B6A9847B0F10008C0F2DD
:10196000A480FB68AAEB0B01C91A7B684846C91A18
:10197000BA697B6A98470028C0F299804FF0000B43
:10198000A84408EB000507F1300AB34562D30021F3
:10199000BA6908467B6A9847E5E65E464FF000085C
:1019A00007F1300098E75E46D84699E7B04697E7DA
:1019B00019F8021B3F4B19F8015C54F825009842B6
:1019C00002D33D4B98421DD33B6923B1F8690DF01A
:1019D00074FE002890D13B68FBB908F1280307F199
:1019E000280208F1010003EB020C07F1500308F193
:1019F000020853FA80F00CF8101C5FFA88F800F81F
:101A0000105C79E73B692BB1F8690DF056FE0028B0
:101A10007FF472AFBB6FDB0709D506F1280307F12E
:101A20002802711C9E1806F8205CCEB264E7BB6FDA
:101A300058077FF561AF08F1280307F1280208F184
:101A4000010103EB020808F8105C5FFA81F853E724
:101A5000002068E71BF80A3054F8239087F82F30ED
:101A6000FB6FFBB133F81B800121BA697B6A07F178
:101A70002F00984700281ADB0544B8F1000F06D163
:101A80004846FFF7D7F800F101081FFA88F84146E9
:101A90004846BA697B6A9847002808DB05440BF181
:101AA000010B72E7D7F87C80DEE745465BE605462A
:101AB00059E600BF34470100C07C0100A757010070
:101AC00004000001884B0100014B1860704700BF03
:101AD000E402002080B505460E46174698460CF0F5
:101AE00083FD034612F01CFE0446DFF818904246C0
:101AF00049F8003039463046A84754F8090002F04A
:101B00007FFB00BF080000002DE9F047058B04466D
:101B10002807904611D4022905F0070540F0CD8032
:101B200020460EF0ADF878B10138218B042811D889
:101B3000DFE800F0C3106D85950001290CBF45F06A
:101B4000100545F02005258388F31188BFF36F8FBA
:101B5000BDE8F08701F0070AAA4500F0A68000273B
:101B6000B9463E46A368002B00F0BD8041F0080155
:101B7000218388F31188BFF36F8FA168002900F0DB
:101B8000BB800D68002900F0B780334652462046DE
:101B9000D1F80480C047002D76D02B6829461D4619
:101BA000F0E701F007035A1F012A1BD8002221F099
:101BB0000701062B276889B2C4E9002209D13B46F8
:101BC00003E0628B013262831B68002BF9D141F084
:101BD0000201204621830EF053F800287BD041F00B
:101BE000200177E0042B0AD121F0070189B22046B9
:101BF00021830EF045F810B141F020012183218BA3
:101C000001F0070AAA4550D00027B946AAE7236980
:101C100021F0070141F00601062DD3F80090218341
:101C20002DD1B9F1000F40D041F00801218388F394
:101C30001188BFF36F8F20463949C84729E021F04A
:101C40000701236941F0040189B2042DD3F80490FF
:101C50002183E6D000274FF0040A3E4682E721F0B8
:101C60000701236941F0050189B2052DD3F80890D9
:101C70002183D6D000274FF0050A3E4672E70027A1
:101C80004FF0060A3E466DE72B4687E7B9F1000F95
:101C9000D1D14FF02003EFF3118883F31288BFF303
:101CA0006F8F238B23F008032383258BEA062ED521
:101CB00025F01003238305F007056669218B002EAC
:101CC000BFF66FAF00232768C4E9003321F0070196
:101CD00041F001012183218B4FF0000901F0070A37
:101CE000AA457FF43FAF002F9BD041F0080121832C
:101CF00088F31188BFF36F8F002FC7D03D68394636
:101D00003346524620460DF0E7FF2F46F4E7AB0678
:101D10007FF51AAF25F02003238305F00705FFE6C2
:101D200005FD0000044608B54FF02002EFF31183D3
:101D300082F31288BFF36F8F09F060FF204602F034
:101D400015FA03480DF0E2FC01F0F6FCFCE700BFD9
:101D50005B58010000F01F0240090DD001280DD191
:101D6000094B03EB8203D3F8002222F0E04242EA5F
:101D70000171C3F800127047044BF2E70023803270
:101D800053F82230FFDE00BF002884500025845025
:101D900038B50124134B144DC3F800450223032129
:101DA000C5F8D0360020FFF7D5FF20460321FFF706
:101DB000D1FFC5F804472146C5F804492120C5F8DC
:101DC000004BFFF7C7FF21462020FFF7C3FF214646
:101DD0000B20FFF7BFFF21460A20FFF7BBFF0020C3
:101DE00038BD00BF001000500040005007B50DF195
:101DF000070010F06CFF114B98421CD14FF4806229
:101E00000F4B1049C3F8B8254FF40062C3F83C25C6
:101E10009DF8070010F047FF0B499DF8070010F0F0
:101E20003DFF01209DF8073098400AF077FA002026
:101E300003B05DF804FB6FF00B00F9E70000AD0B99
:101E400000A002502CA0025028A10250052370B51A
:101E5000144D154E2C780134B4FBF3F303EB8303DC
:101E6000E41A10F0DBFE114A137823B156F824303F
:101E7000C01A072814D94FF05023D3F8141141B1D8
:101E80000021C3F81411D3F814312C700CB90123BC
:101E900013702C7810F0C2FE46F82400012070BDAB
:101EA0000020FCE737370020E019002036370020FB
:101EB00048B1054B054A1B68B3FBF2F35843044B8A
:101EC00043F00103184770477004002040420F00A0
:101ED000A04C010070B5049CC4F30726304609F0FD
:101EE0008FFCE5B20146284610F0E9FE00220120F1
:101EF000074BA40B04F0FC041A51A8400AF014FA92
:101F0000304609F031FE2846BDE870400AF080BA3C
:101F100080A00250F0B583B000AF381D0AF072FA0D
:101F2000284B98424BD109F001FE041E13DA387990
:101F30000AF06EFA6D4688B06A46234BC2E9053452
:101F4000032342F8103F00234FF4C2511F4800F012
:101F500087FEAD462FE040F607031D4D7C71AE684D
:101F6000FB8074687B6814B96FF05704E2E70821BE
:101F70002846184AA047041EDCDB3369002BF3D047
:101F80000122082128469847041ED3DB01203B7913
:101F900098400AF0C3F978793D79FE7910F029FE6E
:101FA0000146284610F07FFE0B4BB60045F0004579
:101FB0009D51002CBED120460C37BD46F0BD6FF0C0
:101FC0001204B7E70000AD0B88580100004C010077
:101FD0003C480100DD1F000080A102502DE9F341C3
:101FE000144683681B690BB100229847C4F3072687
:101FF000304609F00DFC0546304610F0FAFD4FF072
:102000000008E7B20146384610F05DFE104B220E84
:10201000920043F80280304609F0F2FB0D4A4FEA85
:10202000943C0CF0FC0C47F0004342F80C300146A5
:10203000384610F033FE084B05F13202009330466B
:1020400043460194520010F0DDFD02B0BDE8F0817E
:1020500080A1025080A00250D51E00000AF040B8B6
:102060007FB570B9124B1348059302234FF4825188
:1020700004AA04930EF050F96FF0150007B05DF854
:1020800004FB836863B90C4B0A48059302234FF4A1
:10209000825104AA04930EF03FF96FF00400EDE7BB
:1020A0001B681BB107B05DF804EB18471846E5E75D
:1020B000B9580100A84B0100CA58010030B587B0DB
:1020C00008B101B16AB9134B1348059302234FF4C9
:1020D000825104AA04930EF01FF96FF0150007B0A7
:1020E00030BD84680CB1E56865B90C4B0A480593AE
:1020F00002234FF4825104AA04930EF00DF96FF0FD
:102100000400ECE741F8040BE36807B0BDE8304099
:10211000184700BFE8580100A84B0100CA58010049
:1021200030B51346044687B068B91A4B1A48059370
:1021300002234FF4825104AA04930EF0EDF86FF0DD
:10214000150007B030BD006860B9144B1248059304
:1021500002234FF4825104AA04930EF0DDF86FF0CD
:102160000100EEE782680AB1956865B90C4B0A4830
:10217000059302234FF4825104AA04930EF0CCF885
:102180006FF00400DDE70A46AC46616807B0BDE8C1
:102190003040604714590100A84B01002559010047
:1021A000CA5801000020014B18607047000007204A
:1021B00030B50C460E4985B00291D0F8AC110546F9
:1021C000CDE9003100F1E0014FF0FF3320460AF085
:1021D00041FF50B9012384F86430D5F8A83123B108
:1021E000204605B0BDE83040184705B030BD00BFFF
:1021F0000F04010038B50C46114605460EF009F9EA
:10220000034638B9284604490EF003F90346002076
:10221000236038BD0120FBE7AC7A01002DE9F04FC7
:10222000012381460569466885B005F55977D7E8E9
:10223000EF2F002A03D1C7E8E13F0029F7D10CBFF7
:102240001A46002240F0B180B368B16A05F5E4781F
:102250001C1F10460EF062F984425FD8013A00F06C
:102260009E80B2FA82F24FF00044D4407268204659
:10227000073222F00302C5F86022B16A0EF04EF96F
:10228000C5F86402B36A40466343033323F0030393
:1022900002EB4302230103EB4403093323F003035E
:1022A00003EBC403C5F858221A440832C5F8542277
:1022B0007368C5F85C42C5F850323D4BC5E9A96367
:1022C000316800F0BDF9044630BBD9F804A0D9F854
:1022D0001090DAE9073409F5307B012B584608BF26
:1022E000103C11F031FE0023DAF8240031494FF49C
:1022F000806201EB80210093584623460BF0BEFD1F
:1023000009F52C702C4911F0E1FDDAF8140083680E
:102310005C682CB96FF05704002139E0013298E76E
:102320004B46264ADAF81810A04704460028F3D195
:10233000DAF8140083681B69002BEBD00122DAF86D
:102340001810984704460028E6D11D4B2846C5F8CA
:10235000A8311C4BC5F8AC311B4B0393D5F8103298
:102360000293D5F80832CDE90083D5F86832B26A15
:10237000D5F8601300F02CF904460028CCD105F103
:10238000E0000AF015FF0028C5F868030ADB022107
:1023900038460EF073F8204605B0BDE8F08F6FF0B8
:1023A0000B04B9E76FF01504B6E76FF07704F2E7B6
:1023B00065040100E83B00204B0401003F040100DC
:1023C000CD230000F3050100AD04010013B5044660
:1023D00040B100230122CDE90032074BD0E90912B8
:1023E0000AF0ECFDA36E1B6823B1E06E02B0BDE8FD
:1023F0001040184702B010BDAC7A010013B5044676
:102400000846216901F55971D1E8AF1F022910D1A1
:1024100093B1A0B10121CDE900311346D0E90912F1
:102420000AF0CCFD074B984208BF6FF00B0002B0DA
:1024300010BD6FF00F00FAE76FF04C00F7E76FF098
:102440000100F4E72EF8FFFF2DE9F7438846154613
:10245000066906F55973D3E8AF3F022B5FD11368C5
:1024600023B96FF0150003B0BDE8F0831B78002B93
:10247000F7D0D6F86093B9F1000F33D106F5D877CD
:102480004FF0FF324FF0FF3338460BF08BFA3046F7
:102490002A6801A9FFF7AEFE019C1CB938460DF071
:1024A000EBFFDEE705F10803A3666B6984F864902F
:1024B000E366E46360B138460DF0DEFF2146304646
:1024C000236E2A68FFF774FE0020C8F80040CAE7B0
:1024D0002022296804F1400012F0CCF838460DF0B3
:1024E000CBFFF1E730460F490DF093FF044600287B
:1024F000B7D005F1080383666B69C063C366002328
:1025000080F8643020222968403012F0B3F8224667
:102510000121304600F03EF80028D5D0A1E76FF049
:102520000F00A0E7AC7A01002DE9F04F05460E46FA
:1025300090460027D0F8B0A085B0AAF5AE74214629
:102540003046FEF765FBE0B9114BA4F1400B029356
:10255000DAF810303246CDE9008329464FF0FF33D8
:102560005846AAF5CE790AF075FD60B970230122AC
:1025700003FB079383F86420DAF80C300BB158465C
:102580009847703417B105B0BDE8F08F0127D6E742
:10259000550601001FB5144690B18AB1012912D128
:1025A0000A4B00F1E0010293D0F8AC3140320193C4
:1025B0004FF0FF33204600930AF04CFD04B010BDED
:1025C0006FF01500FAE70020F8E700BF550601009C
:1025D0002DE9F04387B00E46DDE90E811446DDE9B2
:1025E00010251F4630B329B3DFF850C000F1E009D1
:1025F000002D08BF65469EB9CDE9034400F5CE74B1
:102600002046059611F045FA03ABCDE900432A4672
:102610003B46414648460AF0F1FD07B0BDE8F0836D
:10262000002241460E9248462A4607B0BDE8F043D4
:102630000AF00EBF6FF01500EFE700BF292500007C
:10264000F0B50E46044689B000286FD0012302463B
:10265000C3630023D0F89810364F403040F80C7C0C
:1026600042F8301FCDE901334FF0FF330093C36DC3
:1026700010F0CFFC304A06AB92E8030083E8030079
:1026800018460AF0ADFB0546D8B904F134000AF04B
:1026900089FB0546A8B93946284805AA10F095FCDB
:1026A000054670B9059B9A6872B10C33D4F8940052
:1026B000C4F8A0300DF0FFFFC4F8D40030B96FF0BB
:1026C0000B05284609B0F0BD0346EFE7D4F89400A7
:1026D0000DF0F1FFC4F8D8000028F0D0D4F88C3009
:1026E000D4F8A010C4F8A8300423C4F8AC30C4F85F
:1026F000C4300223A362124BB4F89420D4F8D470EF
:10270000C4F8B810C4F8D010D4F89010236204F1C3
:10271000A403A4F8B020C4F8A470C4F8C010A4F8AE
:10272000C820C4F8BC00A661E362CAE76FF01505D3
:10273000C7E700BF4F590100204C01005959010063
:10274000DC4D01002DE9F047044607464FF0010932
:10275000DFF8508014B93846BDE8F08794FAA4F544
:10276000B5FA85F509FA05F32E0108EB05156FEAB0
:10277000030A24EA03042B7B002BEBD058F8063025
:102780001B694BB94644736804222846196807EA56
:102790000A0700F051FADDE7284698470028D9D10A
:1027A000F0E700BF104C010030B5002289B00F499E
:1027B0000F4811F0A2FD002200230024CDE90623DA
:1027C0000E230C4DCDE903344FF440722846CDE979
:1027D0000144094B094900940BF05CF8084928466C
:1027E00011F038FA204609B030BD00BF05280000BE
:1027F000A8110020200D0020DD2A0000E83F002065
:102800006159010001480BF0B7B900BFB0070020C3
:102810002DE9F04780461F480F460DF09EFF064603
:10282000002830D000252846BDE8F087237B73B10F
:102830002368DB680BB12046984723681B69D3B92E
:10284000636804222046196800F0F6F90136103456
:102850004C45EBD3B8F1000FE5D0002DE2D028466F
:10286000FFF770FF0546002FF7D000214FF4A4704A
:102870000BF0A0FEF1E7204698470028E0D00AFAC6
:1028800006F31D43E2E705464FF0010A024CDFF86C
:102890000C90DDE7041A0020104C0100204C0100D0
:1028A000014B53F8200070471C4E010008B5034649
:1028B00008462BB1044A136000F074FC002008BDE8
:1028C0006FF01500FBE700BF1403002010B5044CA7
:1028D000237813B903480BF04FF90123237010BD7F
:1028E00038370020B007002010B5044606480DF028
:1028F00034FF3CB1054BD3E8EF1F0139C3E8E21FB9
:10290000002AF8D110BD00BFFC190020001A0020D9
:1029100000200146034BD3E8EF0FC3E8E21F002A73
:10292000F9D17047FC19002070B5FFF7F1FF05469B
:10293000074C084EB44200D370BD63685B792BB17D
:1029400023685B6813B12946204698471034F1E7A5
:10295000104C0100204C010010B5044C04492046E5
:102960000DF07FFB034B1C6010BD00BF9C060020D8
:10297000084E0100F419002008B50023074A4FF45F
:1029800000411370064A07481360074A1360FFF7B7
:102990008DFFBDE80840FFF7DFBF00BF39370020DB
:1029A000FC19002057070100001A002001460022F0
:1029B000002301480DF076BB9C06002001480DF075
:1029C0000FBC00BF9C060020024B014618680DF0AA
:1029D00059BC00BFF419002001480DF08FBC00BFA6
:1029E0009C06002070B5264B1878002847D0FFF7CA
:1029F000E5FF054670B1234BD3E8EF1F0139C3E86B
:102A0000E21F002AF8D1204C204EB4422DD3284694
:102A1000FFF7DAFF1E4B1F4C1B68002B19DD11F06E
:102A200025FC4FF47A72A0FB020302FB0131C30BB9
:102A300043EA4143D4E900209B1A40F2E9324FEACD
:102A4000D13161EB0001934271F1000101D3FFF735
:102A50006BFFD4E9003213F57A7342F10002C4E946
:102A60000032BDE87040FFF7B7BF63685B7923B100
:102A70002368294620461B6898471034C5E770BD77
:102A800038370020001A0020104C0100204C0100B3
:102A9000FC190020A011002070B50D4D297861B9F6
:102AA0000120FFF7B5FE0B4C0B4EB44206D3FFF7E7
:102AB00099FF0028FBD101232B7070BD63685B79FF
:102AC0001BB1236820469B6898471034EDE700BF90
:102AD00039370020104C0100204C010000212DE965
:102AE000F0470846FFF794FE044658B340F2676883
:102AF0004FF0000911F014FE1B4B1C4A1B581360C9
:102B000033B11B4B1B68092B02DD1A480BF034F85C
:102B10000025194FDFF85CA044B12046FFF712FEF4
:102B2000044618B94FF0FF384FF0FF39FFF75AFF4E
:102B3000064628B9B5B942464B4650460BF042F816
:102B40003546E9E74FF0FF384FF0FF39D2E72B6801
:102B50009B691BB100222846114698471035BD429B
:102B6000F5D3E8E7054DFAE708000000F819002062
:102B7000001A0020B0070020204C0100104C01007A
:102B800013B518480DF0E9FD174B1B787BB14FF0DA
:102B90002003EFF3118483F31288BFF36F8FFFF7E5
:102BA00021FF84F31188BFF36F8F02B010BD0F4B6C
:102BB0001B68002BF9D050B9002200230C48CDE946
:102BC00000234FF4004200230BF052FFEDE70928E9
:102BD000EBD1074811F09DFB064802B0BDE810405C
:102BE0000AF0CABF001A002039370020F819002067
:102BF000A8110020B007002010B5064B04461B6842
:102C000098472146A06004480DF0CAFABDE810407C
:102C1000FFF7B6BF140300209C060020044A054BB2
:102C20009B1AB1EBD30F34BF52F83100002070472C
:102C3000084B0100104C0100084B10B4C31A446843
:102C40001B110133237143689A7101224368196093
:102C500043685A7110BCFFF739BE00BF104C010029
:102C60002DE9F04F8FB0C1F34A2804AF0D469146CD
:102C7000B8607B600C0DB8F1000F63D000264FF0F8
:102C8000040B4FF00A0A07F11403C7F80C80C7E9D8
:102C900007667E620193CDF808B0CDF800A007F179
:102CA0001C0332464846F968FEF734FDB0F5006F64
:102CB00003461CD36C468AB0D9F8041004AB2648EE
:102CC0001A46C3E9050140F2FF71D9614FF4007162
:102CD0001984224B42F8103F4FF4125133462048DA
:102CE000FFF7BEFFA5462C37BD46BDE8F08FC0F309
:102CF0000A0804F11700184420F0070080083B6020
:102D0000FFF754FE68F35325044690B13B6800F189
:102D10001001C7E9083607F11403F961CDE900A3F2
:102D2000CDF808B048460F4AF96807F11C03FEF7D2
:102D3000F1FC68F353252A4620467B68B9680DF0FC
:102D40003EFDD0E704F1170020F007008008FFF7F0
:102D50002DFE0446EDE700BF765901000400000196
:102D6000B04B0100930701002DE9F04F87B00446F6
:102D7000DDE9105ADDE912690F4693469846A6B37D
:102D80001021334652460020CDF80090CDF8149023
:102D9000FEF7EEFA014605F117000844144B04F063
:102DA00007040BF0070BE40020F0070003EA4123BF
:102DB00044EA8B1480081C430391FFF7F7FD44EAB3
:102DC0000554054640B13EB1334652460399CDF80D
:102DD00000901030FEF7CCFA43462246394628468A
:102DE00007B0BDE8F04F0DF0EABC3146D3E700BFB5
:102DF00000FE0F000EB403B503AB53F8042B0146DD
:102E00000448019301F0E4FB02B05DF804EB03B069
:102E1000704700BF25080100CA0605D48B064CBFC9
:102E200002490349FFF7E6BF704700BFAB7A0100D4
:102E3000AA7A01002DE9F04F89B09A46DDE91473B2
:102E40009DF84CB00593169B04460D46179E0692BE
:102E50000493BBF1000F00F0858006F00803079390
:102E60000DF095FC06F002090246002849D02046E4
:102E70008549FFF7BFFF8046B9F1000F08D016F073
:102E8000440F40D12A4620468049FFF7B3FF8044D3
:102E900006F0010353B17E4B204653F82B207D4BA7
:102EA0007D49002A08BF1A46FFF7A4FF06F0080371
:102EB000002B54D0794B204653F82B207849FFF74C
:102EC00099FF0546069B2BB11A4620467549FFF728
:102ED00091FF0544BAF1000F05D0524620467249D1
:102EE000FFF788FF05444544002F49D1049B002B80
:102EF0004FD1F30700F1C18031462046FFF78CFF28
:102F0000B5E08046B8E7694B18680028BFD0684B29
:102F10004FF47A791B684FF46161B5FBF3F5B5FBAB
:102F2000F0F300FB135509FB05F5B3FBF1F2B5FB1C
:102F3000F0FE4FF03C0C01FB123100FB1E55B1FBC3
:102F4000FCF309FB05F5B5FBF0F50CFB131120466E
:102F50000091CDE901E55749FFF74CFF97E706F0EF
:102F60000805AFE7BAF1010F06D1002F65D1049B28
:102F7000002B7CD000250CE0002FF8D04E485DE0FF
:102F80004E483B4622464E490CF066FB049B002B04
:102F900069D0DFF83081DFF83091049F3146102F7F
:102FA000204628BF10274FF0000AFFF735FF554590
:102FB00046DC059B494620461A78FFF71BFF4FF079
:102FC000010A1AF0070F03D141462046FFF712FF0E
:102FD00057453CD9059B4946204613F80A20FFF780
:102FE00009FF0AF1010ABAF1100FEAD14FF0000A05
:102FF00020463649FFF7FEFE5246059B20469A5C66
:10300000334B995C11F0970F08BF2E223149FFF71F
:10301000F1FE0AF1010ABAF1100F1DD01AF0070FE4
:1030200003D141462046FFF7E5FE57455246E4D816
:1030300041462046FFF7DEFEEBE720485D46A0E76D
:1030400041462046FFF7D6FE0AF1010AAFE72046C7
:103050002149FFF7CFFEC4E7059B3B440593049B42
:10306000DB1B049399D1BBF1000F7FF442AF2046E4
:1030700009B0BDE8F04F0DF0C8BB2046054A06492F
:10308000FFF7B8FE38E700BFBA590100BE5901008A
:103090002C4E0100B5590100F1650100404E0100C0
:1030A000E3590100E9590100ED5901000C1A002013
:1030B000081A0020C7590100530801002508010023
:1030C000D1450000767A0100F2590100F85901005B
:1030D000AF7B0100FA590100747A01002DE9F0413B
:1030E0000F884B6805460C4690468E6886B0C7F33D
:1030F00082175BB1144A9B1A43F3CF01002920DBEE
:103100002078C0F3C200FFF789FD0346214651F83D
:10311000102B6088C2F34A22002A01EB020408BF88
:1031200000210022C0F30B10CDE90408CDE9021400
:103130002846314601970092FFF77CFE06B0BDE8B5
:10314000F0810023E2E700BF084B010042F20F7359
:1031500073B58B4228BF0B460568044605216846B7
:103160000D4A0BF0F7FE0646636828460B225B68A3
:103170000A490DF03DFB63683246694628465B68A4
:103180000DF036FB63681B2228465B6804490DF08E
:103190002FFB02B070BD00BF8B610100195A010006
:1031A000FD59010000210123064A904206D8064A33
:1031B00001B901231360054B1860704701214008D5
:1031C0005B00F2E740420F00081A00200C1A0020B2
:1031D000014B002019607047241A00200122024B85
:1031E00002481A700DF011BB3B370020704E0100F1
:1031F0000148FFF7ABBF00BF704E010010B5064B92
:103200000C461868FFF74CFB2146BDE8104003460A
:103210000F220248184700BF241A0020704E0100F8
:10322000F8B50D460446064F4618B44201D128466B
:10323000F8BD14F8011BBB6801485B689847F4E7C8
:10324000284801000449431E0F3013F8012F8A5CFF
:1032500083421A70F9D170475F5A0100F0B50746F2
:10326000264E8DB001AD0C460FCE0FC50FCE0FC54B
:1032700096E8070085E807003846002F39D0002C73
:1032800039D0381F0246214610344B780D781B0484
:1032900043EA0563CD7804312B4311F8025C8C427C
:1032A00043EA052342F8043FEFD10421144C8A0776
:1032B000036916D1C3F30742A55C1A0EA25C42EA69
:1032C0000562C3F30725655DDBB2E35C42EA0542B4
:1032D00042EA032221F0030330336B4453F82C3CC1
:1032E000534050F8042F013153402C290361DED1A3
:1032F00001200DB0F0BD2046FBE700BF284C0100C7
:103300005F5A01002DE9F04F002703689DB002933A
:103310004368DFF8BCA103938368DDE902460493A8
:10332000C36805930369DDE904BE06934369079307
:103330008369DDE9062C0893C36998460993089BC5
:103340000093CD590CAB2DBA5AF8049BDD514FEACE
:10335000F223A94483EAB213009D83EA72634B44CB
:1033600025EA020502EA0C0985EA09052B444344D3
:1033700086EA0B054FEA743888EAB408254006EA65
:103380000B0985EA090588EAB4580437A844402F98
:1033900003EB0E054344DE46DDF8008040F08880F4
:1033A0004FF0100A4B490A9151460AF1010A0DF1FA
:1033B000700E0AF00F070EEB870757F8407C01F0FC
:1033C0000F094FEAB748019788EAF71801F10E078D
:1033D00007F00F070EEB870757F8407C09314FEADB
:1033E000F74E8EEA774ECDF82CE001F00F010DF18B
:1033F000700E0EEB81010EEB890959F840EC51F883
:10340000401CBAF1400F7144DDF804E088EADE08A0
:10341000DDF82CE041448EEA972E714405EA02085B
:103420004FEAF52E2CEA050787EA08078EEAB51E53
:10343000DDF828808EEA756E774458F804EF49F875
:10344000401C77440F4400994FEA733E394484EAA4
:103450000607CDF828808EEAB30E07EA030704EAD0
:1034600006088EEAB35E87EA080777440F4401EB4B
:103470000B0ECDF800C0B34622D102993944016049
:1034800003991944049B416023448360059B3344A2
:10349000C360069B73440361079B2B444361089BF5
:1034A00013448361099B6344C3611DB0BDE8F08F81
:1034B000B346CDF800C0264694461C462A4640E74F
:1034C000944626462A461C4675463B466CE700BF96
:1034D000804E0100BC4E010010B50446C8B17022F8
:1034E00000210DF0D2F90B4B0B4A0C49C4E9002323
:1034F0000B4B0C48C4E902130B4BC4E90403012035
:103500000A4BA36103F17453A3F52303A3F692437B
:10351000E36110BD85AE67BB67E6096A72F36E3C76
:103520003AF54FA57F520E518C68059BABD9831F8E
:1035300001480BF0CDBB00BF804F010038B50446F9
:1035400018B90F4B0F485B6898476168B1F5683F41
:1035500010D0B1F5680F0DD00B4DA9420AD011F46F
:103560006861206807D00146084810F047FB002337
:103570002360656038BD142211F0C1F8F9E700BF7F
:10358000300500205F5B01002C5F5CA9281F002034
:1035900008B560B34368B3F5683F0ED0B3F5680F64
:1035A00018D0144A934220D000684FF0FF324FF0F9
:1035B000FF330AF0F7F958B115E001220368D3E8A8
:1035C000EF1F002903D1C3E8E02F0028F7D10AD16B
:1035D000002008BD0368084A1B7803F5807352F881
:1035E0002330002BF4D00548F3E70548F1E76FF4EA
:1035F000E040EEE72C5F5CA900000350E98FFFFF7D
:10360000EA8FFFFF08B520B34368B3F5683F09D0E0
:10361000B3F5680F13D0114A93421DD000680AF029
:103620003BFA14E000220368D3E8EF1F012903D11D
:10363000C3E8E02F0028F7D109D0094808BD0021D0
:103640000368084A1B7803F5807342F823100020B2
:10365000F4E76FF4E040F1E70348EFE72C5F5CA983
:10366000E98FFFFF00000350EA8FFFFF10B504460B
:1036700018B91D4B1D485B6898476368B3F5683FF0
:103680002FD0B3F5680F2CD0194A934219D1236873
:1036900003BB4FF0FF324FF0FF33214615480AF0CD
:1036A0008DF808B923681BB90F4B13485B6898471E
:1036B00014220021206811F022F84FF4686363603F
:1036C00008E0B3F5683F0DD83A2B03D040F6BA6254
:1036D0009342DED1206810F0D8FA636843F03A03D1
:1036E000636010BD054AF3E7300500205F5B010011
:1036F0002C5F5CA9281F0020855B01003A00003A7E
:1037000008B5064940231422054810F069FABDE8BF
:103710000840044904480BF04DBB00BF281A0020A4
:10372000281F0020884F01009C4F010001491022F2
:103730000A60704710ED00E072B6404080F31188D7
:10374000BFF36F8F01B5FEF781FB002802D0BFF3F6
:103750004F8F30BFBDE8014062B6BFF36F8F704737
:1037600072B6494081F3118801B5FEF76FFB00285E
:1037700002D0BFF34F8F20BFBDE8014080F3118816
:1037800062B670472DE9F04781460C4600AF00292C
:103790004CD0D1E900126E468AB0A3686D464FF056
:1037A000050AA8462548C5E90723C5E9050148F8E3
:1037B00010AF002342464FF421512148FFF750FA41
:1037C000D4E90312B5466369AD461E48C5E907232F
:1037D000C5E90501C5F810A0002342464FF4215168
:1037E0001748FFF73DFAB54688B0E3696D464FF0DC
:1037F000030AA846144AC5E9052348F810AF002378
:1038000042464FF4C2510E48FFF72AFAB546A36963
:10381000AD460E4AC5F810A0C5E90523002342466F
:103820004FF4C2510648FFF71BFAB54621464846F9
:1038300009F024FEBD46BDE8F08700BFB25B010081
:10384000F04B0100E15B0100105C01001F5C010016
:1038500040B2002807DB01234109034A00F01F00A2
:10386000834042F82130704700E100E040B2002878
:103870000CDB01220649430900F01F00824020337F
:1038800041F82320BFF34F8FBFF36F8F704700BF06
:1038900000E100E0054B420953F82220012300F02B
:1038A0001F0003FA00F01040704700BF00E100E085
:1038B00040B2002801F10101ACBF00F16040064BAD
:1038C0004FEA4111C9B2ABBF00F5614000F00F00F3
:1038D00080F800131954704714ED00E030BFFFF773
:1038E000FDBF00BF0B4A08B50B4B22F07F029A6068
:1038F000BFF34F8FBFF36F8FD3F8882022F470028D
:10390000C3F8882009F07AFE0AF0E6FE00F0F2FB28
:1039100009F0BEFE0000000000ED00E0094A0A497F
:10392000936809689867D96708494B6843F08053E2
:103930004B60002383F31188BFF36F8F9368D86FB8
:10394000704700BFF0340020B054010000ED00E0EB
:1039500016498A684FF030001044EFF3098C80E874
:10396000F01F202080F31288BFF36F8F104F4FF0AD
:1039700000664A698A603E604FF07404141920683A
:103980000C4C2060906F0023936780F3118802F144
:10399000300090E8F01F8CF3098802F1000004B5B4
:1039A0000DF0CDFBBDE8044070470000F03400206E
:1039B00004ED00E0441F00201EF0040F0CBFEFF3E5
:1039C0000880EFF30980816911F8021C0229FFD0F9
:1039D00001B50DF0A5FB01BD42F8203C009B0B4951
:1039E00042F81C3C019B21F0010142F8183C029B6B
:1039F00042F8081C42F8143C4FF0807342F8043C33
:103A00000023203A02658367704700BFD51A000083
:103A10000A4B446F98600A4B1C60436E83F30B881B
:103A2000104681F30988002163B681F31188BFF342
:103A30006F8F00220023FEF74DF800BFF034002006
:103A4000441F002001B5EFF30580A0F110004FEAFC
:103A5000C0000449014409C99847BDE80140024932
:103A60000847000078480100C93A0000114B124A8B
:103A70002DE9F041D518013DB5FBF3F5DFF83C80A9
:103A80005D430F4B074608EB0304013CB4FBF3F422
:103A900003FB04540E1B30460A4910F023FE701934
:103AA00042460021083E10F02AFE7E6704F108001D
:103AB000BDE8F081010000000000000004000000EB
:103AC00004000000204C0100044B996858698842AA
:103AD00003D003494FF080520A607047F034002051
:103AE00004ED00E02DE9F04186B006460D4600AF3A
:103AF0000224444B4FF482517B6143483C6107F1FF
:103B000010020DF020FB414B9B6ADB0678D5404B41
:103B10003D484FF48251C7E9044307F110020DF00C
:103B200012FB1120394B9B6A1C070BD5394B3648C9
:103B30007B6102234FF482513B6107F110020DF0CB
:103B400002FB1220314CA36A990723D5E846324B79
:103B500007F110027B6102234FF482513B612A4836
:103B60000DF0F1FA636BA26A120612D588B06A46AC
:103B70002A492548C2E9051303234FF4C25142F8EC
:103B8000103F0DF0E0FAC5461EB1A36A23F0800392
:103B9000A36213201D4B9B6ADE070BD5204B1A48EE
:103BA0007B6102234FF482513B6107F110020DF05B
:103BB000CAFA1420154B9B6A9C060BD5194B124868
:103BC0007B6102234FF482513B6107F110020DF03B
:103BD000BAFA15200D4B18379A6AD10658BF9A6A5F
:103BE0009A6A920642BF5A6A22F400525A629A6A4C
:103BF00042F0FF029A6200232B70BD46BDE8F081BF
:103C000010208FE74D5C0100F04B010000ED00E05B
:103C1000635C0100965C0100A95C0100C15C0100CD
:103C2000D75C0100F65C01002DE9F04186B0064644
:103C30000D4600AF0224474B4FF482517B6146484A
:103C40003C6107F110020DF07EFA444B9B6AD904E7
:103C50006DD5434B40484FF48251C7E9044307F107
:103C600010020DF070FA17203C4B9B6A1A050BD519
:103C70003C4B39487B6102234FF482513B6107F191
:103C800010020DF060FA1820344CA36A9B0523D56E
:103C9000E846354B30487B61022307F110023B6157
:103CA0004FF482510DF04FFAA36BA26A100412D5A3
:103CB00088B06A462D492848C2E9051303234FF40A
:103CC000C25142F8103F0DF03EFAC5461EB1A36A3C
:103CD00023F40043A3621920204B9B6A59050BD59E
:103CE000234B1D487B6102234FF482513B6107F156
:103CF00010020DF028FA1A20184B9A6AD20518D52E
:103D00001C4B15487B6102234FF482513B6107F144
:103D100010020DF018FA1B20104A1837936A43F46A
:103D20007F43936200232B70BD46BDE8F0811620CF
:103D30009AE79B6A9B04EFD50F4B07487B610223F0
:103D40004FF482513B6107F110020DF0FCF91C2089
:103D5000E2E700BF255D0100F04B010000ED00E04F
:103D60003B5D0100965C01004C5D0100655D01005A
:103D70007A5D0100955D0100F65C010010B586B02A
:103D800002243E4B4FF482513D4804AA059304940B
:103D90000DF0D9F93B4B9B6A99016CD53A4B3848E9
:103DA0004FF4825104AACDE904430DF0CCF91E2052
:103DB000344B9B6ADA010AD5344B31480593022310
:103DC0004FF4825104AA04930DF0BDF91F202D4B2E
:103DD0009B6ADB020AD502242D4B29484FF48251FD
:103DE00004AA059304940DF0AEF92046254B9B6A76
:103DF0001C030AD5274B2248059302234FF4825116
:103E000004AA04930DF09FF921201E4B9B6A5903CD
:103E10000AD5214B1A48059302234FF4825104AA74
:103E200004930DF090F92220164B9B6A9A030AD551
:103E30001A4B1348059302234FF4825104AA0493AA
:103E40000DF081F923200F4B9B6ADB030AD5144B3D
:103E50000B48059302234FF4825104AA04930DF0FA
:103E600072F92420074A936A6FEA03436FEA134307
:103E7000936206B010BD1D209AE700BFAD5D010042
:103E8000F04B010000ED00E0C55D0100D85D0100D0
:103E9000F25D01001C5E01003A5E01005F5E010000
:103EA000795E01002DE9F0438BB07A4B0446D3F8DC
:103EB0000480002600AFC8F3080586F31188BFF31D
:103EC0006F8F02F07F43B3F17F4F0ED102F00C03EE
:103ED000082B19D1704B4FF48251FB6102236F48BC
:103EE000BB6107F118020DF02EF9002634460023BD
:103EF000FB71EB1E092B00F2AC80DFE803F00A9F98
:103F0000A29BAAAAAAAAAAA510074CBF0C460126E2
:103F1000EDE7E9464FF00208614B07F11802FB613B
:103F20004FF482515D48C7F818800DF00CF900235A
:103F3000584DFB71EB6A9A070BD55A4BC7E90683BC
:103F40004FF48251554807F118020DF0FCF8002398
:103F500041E0EB6A002B01DA534BEFE7EB6A5B00C1
:103F6000F5D5524B07F11802C7E906834FF4825189
:103F70004A480DF0E8F86B69A26943F480736B61FD
:103F8000BFF34F8FBFF36F8F6B6932F8022C23F4AE
:103F900080736B61BFF34F8FBFF36F8F4DF602736A
:103FA0009A4208D0AB6ADBB2002B36D00120F91D53
:103FB000FFF798FD40E088B023686A463C493748DF
:103FC000C2E9051303234FF4C25142F8103F0DF02C
:103FD000BAF8CD462368FA79DAB907F1080504F191
:103FE000200C2A4620686168083403C264451546DF
:103FF000F7D17A6A002E47D0C2F3080121B96FEADF
:1040000052226FEA42227A62184607F10801FFF74E
:10401000B9FB2C37BD46BDE8F083AB6A13F47F4F84
:1040200004D00120F91DFFF7FFFD05E0AB6AB3F5F1
:10403000803F8CD3FFF7A2FE0346CCE70020F91D9A
:10404000B6E70020F91DEEE71A4BFB610223BB61C6
:1040500076E7194A18F4F87FE8468AB0174B18BF7C
:1040600013466A461649103DC2E905134FF4007322
:104070001384144BD5614FF41151084842F8103F96
:104080000DF061F8C54662E722F4FF7222F00102EA
:10409000B9E700BF00ED00E0D25E0100F04B010087
:1040A000FD5E0100145F0100355F0100435F010008
:1040B000625F01007E5F0100B95E0100A45E010045
:1040C000A25F010004000001044B5A6942F0100293
:1040D0005A615A6942F480625A61704700ED00E00B
:1040E000EFF30880EFF3098101B57246FFF7DAFEBE
:1040F00001BD00BF002320210348C2180133452B16
:1041000082F80013F9D1704700E100E0002080F34D
:104110001488BFF36F8F002080F30A8880F30B8828
:10412000FDF79CFF00200E490860BFF34F8F0D483C
:1041300080F3088800F03EF8202080F311880A48B8
:104140004FF40061401880F30988EFF314800221D6
:10415000084380F31488BFF36F8FFFF7C3FB0000A1
:1041600094ED00E04063002000520020BFF34F8F29
:104170000549064BCA6802F4E0621343CB60BFF303
:104180004F8F00BFFDE700BF00ED00E00400FA051F
:10419000002318460649D1F89020C2F30722934223
:1041A00000DB7047C1F89830C1F8A0000133F6E792
:1041B00000ED00E010B572B6002484F31388FFF719
:1041C000E7FF23464FF0FF300C4A03F12001013393
:1041D000102B42F82100F8D100234FF0FF30074A9E
:1041E00003F160010133102B42F82100F8D162B6CF
:1041F000BFF34F8FBFF36F8F10BD00BF00E100E032
:10420000084B9B6883420BD1EFF3058343B1064B08
:104210005A6842F080525A605A6A22F400425A6246
:104220000AF0E8B9F034002000ED00E01FB5094CB9
:10423000094A23460121094800F02AF90023039383
:10424000074B0121E41A01A80193029400F02AF916
:1042500004B010BD0000072000000020AC4F01009A
:104260003009002010B50C7A0B6804F01F0223F00F
:104270001F031A43CB68640923F01F03054943EA6F
:10428000440343F00103C1F89800C1F89C20C1F831
:10429000A03010BD00ED00E080B500AF88B06A46E8
:1042A000074BC2E90530032342F8103F00234FF4C7
:1042B000C2510448FEF7D4FC6FF01500BD4680BD26
:1042C000B95F0100D04B01002DE9F04F14460646BE
:1042D0004FF0000987B05F4D00AF79607B6899456A
:1042E00035DAD6F80480B8F1000F54D0B8F11F0FBA
:1042F0001BD918F01F0F18D1D6F800B01BF01F0FF4
:1043000013D158460CF022FF824608EB0B0001380F
:104310000CF01CFF82451FD06FF0150A6C4688B068
:104320006A464D49C2E9051A05E06C4688B06A46FE
:104330004A4BC2E90539032342F8103F00234FF4EA
:10434000C2514748FEF78CFCA5466FF01504204685
:104350001C37BD46BDE8F08F1AF1160FDED054456C
:10436000DCDDC5F898A0D5F89C00C5F898A0D5F874
:10437000A02020F01F0042F01F08D6E900211144C0
:10438000904201F1FF3B1ED1D84508D131465FFA7A
:104390008AF00CF0E4FE09F101090C369EE7C5F83D
:1043A00098A0D5F89C3021F01F0103F01F030B43A8
:1043B0003146C5F89C30E0B20CF0D1FE10F1160F7A
:1043C000C3D0441CE7E7013AD845E0B222F01F020F
:1043D000C5F898A008D1D5F8A030314603F01F03E6
:1043E0001343C5F8A030E7E7D5F8A01001F01F018E
:1043F0000A43C5F8A02031460CF0B1FE10F1160FAB
:10440000A3D0C5F898A0D5F89C203B7C08F1FF38D4
:1044100062F304033B74D5F8A0303A7C5B0863F385
:1044200047123A74D6E900321344BB6023F01F03ED
:10443000441C4344A3EB0B03E0B223F01F03072803
:104440007B6102D9FFF728FFB8E707F10801FFF702
:1044500009FFB6E700ED00E002600100DF5F010048
:10446000D04B01000522044BC3F89420BFF34F8FBB
:10447000BFF36F8F704700BF00ED00E0BFF35F8FA9
:104480000022024BC3F89420704700BF00ED00E00B
:1044900010B5034C2278FFF717FF207010BD00BF46
:1044A0003C3700202DE9F74F294D8A4606464FF04C
:1044B0000008AB46274FD0451BDAD6F80490B9F177
:1044C000000F3FD03168084601910CF03FFE019982
:1044D000044609EB010001380CF038FE84424FF02D
:1044E00014021D4B08D002FB08F36FF015024BF8C5
:1044F000032003B0BDE8F08F14F1160F2C60F8D044
:104500001978A142F5DD02FB08B0C7F89840C7F85A
:104510009840D7F89C4000F10801007B64F3040048
:104520000871D7F8A0000C79400860F347140C71AB
:10453000D7F89C1021F01F016960D7F8A01021F076
:104540001F01296108F1010814350C36B3E700BFDB
:10455000481F002000ED00E03C37002038B50E4D2C
:104560002C68082C15D80020FFF788FF0B4B0C4A4D
:10457000C3F8C020844205D10A4B00201C70FFF70D
:1045800071FF38BD696801EB0011FFF76BFE013068
:10459000F0E74FF0FF30F4E7B84F010000ED00E026
:1045A000AAFF44003C37002008B5024B1B6898471F
:1045B000002008BD5C1F0020034B044A186093785C
:1045C00043F00203937070475C1F00203803002003
:1045D000F0B587B007460E46144600211022684603
:1045E0001D4610F08CF802238DF80230054B2A4648
:1045F00021466846CDE9047601930AF0D7FC07B05E
:10460000F0BD00BF9F11010008B50649064821F022
:104610000701C1F1005202F5E0220BF0D9FA0020A7
:1046200008BD00BFD3B50020407B00201022174BEF
:1046300070B5C3F840244FF47F03D3F83021D3F88A
:104640003431072A1BD1023B032B02D8104AD35C1A
:10465000ABB14FF05024012600250520C4F81866A0
:10466000C4F814560EF018FB3046C4F814660EF069
:1046700013FBC4F81456C4F81856002070BD4FF050
:1046800050230022C3F81426F7E700BF0030005083
:10469000346001000E4B402928BF402170B51D46F3
:1046A0000C4C4618B04203F1020304D1002305F874
:1046B0001130074870BD02781209A25C03F8022C81
:1046C00010F8012B02F00F02A25C03F8012CE9E7BD
:1046D0005B370020B060010030B503788BB0044632
:1046E00007AD032B21D8DFE803F0021A1C1E124984
:1046F0002846FCF797FA059563781E210493A37862
:104700000E4A0393E3780E48029323790193637969
:104710000093A3790AF01EFC09480BB030BD09498B
:10472000E6E70949E4E70949E2E70A212846084A99
:104730000AF010FCDFE700BF6B6001008D60010034
:104740003D37002072600100796001008360010044
:104750009070010030B50024094D0A4B85B0284601
:10476000029303940FF0F0FB02AB284600934FF442
:10477000A3620A23044909F081FB204605B030BD3D
:10478000E0110020C1600100E8420020014601481C
:1047900009F0EABBE0110020037830B5012B13D0FB
:1047A000022B27D07BB90A46184B03F1100453F8AB
:1047B000045BA34242F8045BF9D11B781370438871
:1047C0004B731B0A8B7330BD0A46104B03F1100468
:1047D00053F8045BA34242F8045BF9D11B781370D1
:1047E0004368C3F307224B731B0CCB731B0A8A73FA
:1047F0000B74E8E700F1100350F8042B984241F8DD
:10480000042BF9D103780B70DDE700BFCA6001000B
:10481000012838B505460CBF064807480DF0A2FF31
:10482000044620B101210C300DF0F8FF257620461A
:1048300038BD00BF7C080020F80700200246002099
:1048400070B50B460A49D1E8EF4FC1E8E50F002DDE
:10485000F9D124B9BDE870400120FFF7D9BF01218B
:104860002082217604F10C000DF0D8FF204670BDA7
:104870003801002070B504460F2C0D46104619462D
:1048800005D80D2C0DD9BDE87040FFF7D7BF132C0C
:1048900007D10C480DF066FF044638B900242046C5
:1048A00070BD02460B4645B10748F3E701210C30C5
:1048B0000DF0B4FF01232376F1E70120BDE870403D
:1048C000FFF7A6BF000900205008002070B58EB089
:1048D0006C4606460A4D0D2E0FCD0FC40FCD0FC4EA
:1048E0000FCD0FC495E8030084E803009DBF0EAB15
:1048F00003EB860656F8380C02480EB070BD00BFB8
:10490000544C0100E360010038B5C368B3F80140BE
:104910001B78A3B90F21204602F08EFF054678B917
:104920000B4B1A8822B96FEA04526FEA12521A80AE
:104930005A8822B96FEA04546FEA14545C8038BD77
:10494000012102F077FE2846BDE838400CF0DCBEBD
:104950000037002010B5084C0146052294F86F007E
:1049600003F0B0F838B994F86F000422BDE81040A5
:10497000024903F0A7B810BD0000002051600100FB
:1049800080B5C36800AF88B06A461B7806490748FF
:10499000C2E9051303234FF4C45142F8103F0CF051
:1049A0009EFCBD4680BD00BFEB600100584B01007E
:1049B0007FB5064B4FF4825105930223044804AAA5
:1049C00004930CF08CFC07B05DF804FB136101004C
:1049D000584B010098B5014600AF0D480DF0C9FED7
:1049E0000C490D480FF09FFA00280EDA6C4688B08B
:1049F0006A460A4B4FF4C251C2E905300323084806
:104A000042F8103F0CF06BFCA546BD4698BD00BFB8
:104A10003C01002098030020001300202D610100BC
:104A2000584B01000B46B0B50D8A00AF044629462D
:104A3000D868FFF72FFE8AB06A46094BC2E90750D3
:104A4000C2E9053440F202439384064B4FF43251DD
:104A5000054842F8103F0CF042FCBD46B0BD00BF17
:104A60004A61010005000001584B010080B5012199
:104A700000AF0C300DF006FF88B06A460378064997
:104A80000648C2E9051303234FF4C25142F8103F10
:104A90000CF025FCBD4680BD6C610100584B010047
:104AA0002DE9F041C56800AF2E78B6B9B5F80180A0
:104AB0000F21404602F0C0FE044688B96C4688B01B
:104AC0006A460C4B4FF4C251C2E9053803230A4829
:104AD00042F8103F0CF003FCA546BD46BDE8F0814E
:104AE000EB783146437202F0A5FD20460CF00CFE37
:104AF000F3E700BF8E610100584B0100B0B5C368F9
:104B000000AF1C880121204602F096FE80B96D4658
:104B100088B06A46084B4FF4C251C2E905340323FA
:104B2000064842F8103F0CF0DAFBAD46BD46B0BD7A
:104B30000CF0EAFDFAE700BFB4610100584B010038
:104B4000B0B5C36800AFB3F801400121204602F0C0
:104B500073FE80B96D4688B06A46084B4FF4C25167
:104B6000C2E905340323064842F8103F0CF0B7FBB6
:104B7000AD46BD46B0BD0CF0C7FDFAE7B46101001B
:104B8000584B0100B0B5044600AF02EBC30393429B
:104B900003D12046FFF746FF18E0104610F8085BE7
:104BA000A54219D10B8A5078984211D96D4688B028
:104BB0006A460A49D461C2E9051304234FF401513E
:104BC000074842F8103F0CF08AFBAD46BD46B0BD29
:104BD000084653689847F9E70246D8E7D8610100CC
:104BE000584B01002DE9F0415D4800AF0DF0D7FDB5
:104BF000044600287CD0037E012B7CD0032B40F0A0
:104C0000A980038A032B0CD84FF40073554A5649E8
:104C100056480BF01DF9404080F311884FF0030017
:104C200002DF042104F10C000DF02CFE4588B0F8E1
:104C30000080204605F026FA4D4EC8F30B0326F8F7
:104C40001030238A9D4213D06E4688B06A46494987
:104C5000D561C2E9051304234FF40151464842F8D7
:104C6000103F0CF03CFBB546204605F0B1FA26E0BB
:104C7000204605F007FA0F2136F8100002F0DCFD9F
:104C80000546A0B9204605F0FDF96D4688B036F816
:104C900010306A463949C2E9051303234FF4C25163
:104CA000354842F8103F0CF01AFBAD46DCE72146D0
:104CB0004FEA183202F04AFB28460CF025FD304B33
:104CC000D3F83C31A3B12F492F480FF02CF900281D
:104CD0000EDA6C4688B06A462C4B4FF4C251C2E9DA
:104CE00005300323244842F8103F0CF0F8FAA5469B
:104CF000BD46BDE8F081038A012B0CD840F65D2348
:104D0000184A194919480BF0A3F8404080F311885C
:104D10004FF0030002DF022104F10C000DF0B2FDA0
:104D2000054600780CF0B1FA83070CD440F66123F5
:104D30000C4A17490D480BF08BF8404080F311885E
:104D40004FF0030002DF04232146124A2878FFF7C0
:104D500019FF89E76D4688B06A460F499BE700BF97
:104D60003C010020FA6101002E620100476201004F
:104D70000437002064620100584B01008862010082
:104D80000000002098030020001300202D61010086
:104D9000AA62010078500100D862010010B501211B
:104DA00004460C300DF06EFD2146BDE8104007238F
:104DB000014A0078FFF7E6BE98500100F8B5C568D3
:104DC0000121B5F8016000AF304602F035FD044620
:104DD00080B96C4688B06A46104B4FF4C251C2E9A4
:104DE000053603230E4842F8103F0CF078FAA5462A
:104DF000BD46F8BD2B783BB9D5F80330C0F8AD30CF
:104E0000D5F80730C0F8B1304FF48051201D0CF0B8
:104E10004FFA20460CF078FCEAE700BFB4610100CD
:104E2000584B01002DE9F843064600AF907A8846BA
:104E3000144605F01FF9414D854218D0A47AE84682
:104E4000204605F017F98AB06A463D4BC2E9074093
:104E5000C2E90536062355624FF44251394842F8FB
:104E6000103F0CF03CFAC546BD46BDE8F88320462D
:104E700005F008F94FF00C09334D09FB0050438849
:104E8000B34216D0204605F0FDF809FB00506C46F1
:104E900088B06A464388D36104232C492948C2E973
:104EA00005164FF4025142F8103F0CF018FAA546CF
:104EB000DAE7274ED6F8380120B105F089F900234A
:104EC000C6F83831204605F0DDF80C2606FB005008
:104ED0004368ABB1B8F1000F12D1204605F0D2F80B
:104EE000012106FB00504268D2E90003127A03F068
:104EF0001F06B1405B09DAB100EB83000CF0D8F972
:104F0000204605F0BFF80C2606FB00508368002BF6
:104F1000AAD0204605F0B6F8704305F80080204678
:104F200005F0B0F806FB0055A86808F025FE9BE7E1
:104F3000C94300EB83000CF0D5F9E1E7D408002069
:104F4000EC620100584B0100601F0020216301004A
:104F50000000002038B5042104460C300DF092FC0E
:104F60004578017822464088FFF75CFF25B1BDE80F
:104F70003840024808F000BE38BD00BF20010020C4
:104F800038B5032104460C300DF07CFCE36805784D
:104F900022461978B0F80100FFF744FF25B1BDE8BB
:104FA0003840024808F0E8BD38BD00BF20010020AD
:104FB0002DE9F04F87B00123D0F80C80018A98F8D2
:104FC000004000AF03EB84038B4240F28D806D46BE
:104FD0008AB06A46C2E90731052346484FF4215199
:104FE000C2E90504444842F8103F0CF078F9AD4698
:104FF0001C37BD46BDE8F08F6C4688B06A463F4B13
:105000004FF4C251C2E9053B03233B4842F8103F2D
:105010000CF065F9A546013598F800309D42E7DAB5
:1050200008EB8503B3F801B00F215846B3F80360CD
:1050300002F002FC04460028DED000F1280B46B343
:105040004FF02003EFF3118283F31288BFF36F8FC9
:10505000E3696BB1013BE36182F31188BFF36F8FAA
:10506000204602F039F9013E08F086FDB6B2E6E7C7
:10507000636993B982F31188BFF36F8F02234FF4F2
:1050800082511D4807F11002C7F814A03B610CF0D3
:1050900026F920460CF038FBBDE7A16918688B4261
:1050A000606108BFA06182F31188BFF36F8F4FF07A
:1050B0002002EFF3118182F31288BFF36F8FDA6859
:1050C000E261C3F80C90C3F80090626A4AB9C4E97F
:1050D000083381F31188BFF36F8F584608F0C8FE7C
:1050E000BEE713606362F4E70025DFF814A0A94669
:1050F00092E700BF54630100584B01007E6301003A
:105100009A630100F0B583B0C5680121B5F801606C
:1051100000AF304602F090FB044688B96C4688B078
:105120006A462C4B4FF4C251C2E9053603232A4884
:1051300042F8103F0CF0D3F8A5460C37BD46F0BD41
:105140002B78061D1A2B17D1C378012B28D14FF4C9
:10515000806130460CF0ACF842050DD4D4F8A03094
:1051600039463B60D4F8A83020467B6002F084FFCB
:1051700020460CF0C9FAE0E72B788BB9B5F803307C
:10518000A4F89E30B5F80530A4F8A430B5F807307F
:10519000A4F8A6306FF4807130460CF0A3F814E048
:1051A000D6E8AF3FDB05F5D52B78202BF2D194F86C
:1051B000AC30002BEED0013B84F8AC304FF4203201
:1051C000002304F1580008F0F9FE204602F082FBAB
:1051D000CEE700BFB4610100584B010010B5C1E932
:1051E00000239DF808300C460B7204F04BFF0C2294
:1051F000024B02FB00335C6010BD00BF601F00204B
:105200002DE9F0474FF0FF324FF0FF3306461748C5
:105210000F460DF0A7FA4FF00008044600F10C0A03
:10522000012150460DF0FAFA204684F8188004F067
:1052300029FF4FF00C090E4D09FB00504680204617
:1052400004F020FF09FB0050C0F80880204604F05D
:1052500019FF09FB005503215046C5F804800DF0E5
:10526000E1FA068087702046BDE8F087D408002068
:10527000601F00202DE9F04387B0804615460C469C
:1052800000AF21B9FFF7BCFF044600285DD0012222
:10529000002138460EF097FD204604F0F3FE0C2363
:1052A000DFF8B49003FB0090876020460DF090FA81
:1052B00001462A480DF08AFA4FF4A022002338460E
:1052C00008F080FC064688B14FF4A973244A2549AA
:1052D00025480AF0BDFD3246414624480AF0B8FD93
:1052E000404080F311884FF0030002DF204604F0B5
:1052F000C9FE0C23584319F80060F6B16D4688B01A
:105300006A461B4BD661C2E9053804234FF40251AB
:10531000184842F8103F0BF0E2FF2046AD4604F07B
:1053200057FF092E14D00D2E0CBF6FF00B006FF03D
:1053300004001C37BD46BDE8F08315B12C60002089
:10534000F7E7204604F044FFF9E76FF06800F0E764
:105350006FF06E00EDE700BF601F002044010020E9
:10536000FA610100B163010047620100BA63010004
:10537000E6630100584B010070B588B006460D4643
:1053800042F22F00002101AAFFF774FF044660B12A
:105390000B4B4FF48251079302230A4806AA069347
:1053A0000BF09DFF204608B070BD0198C368B3F8AC
:1053B00001203280B3F803302B8004F009FFF1E7BD
:1053C00002640100584B0100F7B5144B054693F9F0
:1053D0009B300C46002B1DDA14B9204603B0F0BDFB
:1053E000082C4FF0000142F2180001AA264628BFFF
:1053F0000826FFF73FFF0028F0D1019F3246F968E9
:10540000284601310FF06EF9384604F0E1FE3544CC
:10541000A41BE1E76FF08500E0E700BF000000207B
:105420002DE9F0478CB0B04BB0F80180198848F4F2
:1054300070429142054602AF28D05988914227D147
:10544000012200214FF0010923F812102C78002CC2
:1054500039D03C2C27D101F031FB6FF080011030A6
:105460000BF040FF0020FFF775FA054698B99F4BF7
:105470004FF482517B6202239D483B6207F1200278
:105480000BF02DFF2837BD46BDE8F0870022D8E796
:105490004FF00009DAE74472002102F0CBF8284609
:1054A0000CF032F9EEE76D4688B002AA914B4FF44A
:1054B000C451C2E9053403238D4842F8103F0BF074
:1054C0000EFFAD46DEE7EB782E1D012B08BF8A4BA1
:1054D000304608BF93F86F400BF0D3FE314640B31F
:1054E00007F110000BF0C2FE05F1110107F10900F0
:1054F0000BF0E9FE01233B72EB78012B27D03046FD
:10550000FFF7EAF86C4688B002AA7C4B4FF4E251F0
:10551000C2E905304FF400739383794B744842F825
:10552000103F0BF0DCFE1321A54640460BF0E2FED7
:10553000A8E720460BF099FF014607F110000BF099
:10554000C7FE314607F108000BF0C2FED4E707F1B1
:105550001000FFF7FFF9EB780446012B0AD101F0A8
:10556000ADFA82466FF0800110300BF0BBFE504662
:105570000CF081F8002CC2D020460022B5F8013092
:1055800007F1100120F8883B0BF0A2FEB5F81730A8
:10559000A4F89E30B5F81930A4F8A430B5F81B3043
:1055A000A4F8A630EB786272012BE37016D107F1F4
:1055B000080104F18F000BF08BFE01F07FFA217AD5
:1055C0004D4AC1EBC101114404F196000BF080FE7D
:1055D000D2F8E4305D0601D501F030FC0721204609
:1055E00002F028F8B9F1000F03D00121204602F0A3
:1055F00021F820460CF0BEF8A37A072B6ED1231DAC
:10560000D3E8AF3F13F4805F3B4D29D1E3781BB162
:1056100095F8D830180723D5022142F21600FFF77B
:10562000EFFD064600285BD002210C300DF0FAF8A1
:10563000238800220380314642F21600FFF71AFE4B
:1056400070B16E4688B002AA2E4B4FF4C251C2E927
:1056500005300323264842F8103F0BF040FEB546C4
:1056600095F8D930D90716D50021022320461A46CD
:1056700000910BF078FE70B16E4688B002AA224B02
:105680004FF4C251C2E905300323194842F8103FD4
:105690000BF025FEB54695F8D8309A061ED5D5F8FC
:1056A0005C319B689B0719D5B91D381DFFF764FE57
:1056B000A0B92046FA88B9880BF037FE70B16D4664
:1056C00088B002AA114B4FF4C251C2E9053003233E
:1056D000074842F8103F0BF002FEAD462046DFE6D9
:1056E0006FF06800ADE700BF0037002022640100C2
:1056F000584B010043640100000000205C6401007D
:10570000030000017864010099640100B0640100A5
:1057100000B5C16889B00B7801A88DF80030B1F8E8
:1057200001300431ADF8013011F8013C8DF803303F
:10573000B1F80730ADF81730B1F80930ADF81930CD
:10574000B1F80B30ADF81B304B7B8DF81D300BF0F2
:10575000BFFD07490DF10B000BF0B5FD0DF1110078
:105760000BF0B1FD6846FFF75BFE09B05DF804FB86
:1057700065600100024BD3F85C315B69184700BFDC
:1057800000000020F8B505460C4600AF19B9FFF738
:1057900037FD044618B340F635439D4219D12046E3
:1057A000FFF7E8FF054688B16E4688B06A460D4BA4
:1057B0004FF4C251C2E9053003230B4842F8103FB1
:1057C0000BF08DFD2046B54604F002FD2846BD468F
:1057D000F8BD214605480CF0F9FF0025F6E76FF00B
:1057E0006805F3E7CC640100584B01004401002038
:1057F0002DE9F04186B000AF044604F043FC324B83
:1058000033F81050A07A04F035FC21460EF0CDFAA2
:105810002E4B93F88A309B0614D50F21284602F0B0
:105820000BF8044690B96C4688B06A46284B4FF492
:10583000C451C2E905350323264842F8103F0BF056
:105840004EFDA5461837BD46BDE8F081837A073B7B
:10585000012B0ED9204B4FF484517B6102231D484C
:105860003B6107F110020BF03AFD20460BF04CFFB4
:10587000E8E70BF049FF052140F63540FFF7C0FC93
:10588000044658B9154B4FF482517B6102231148ED
:105890003B6107F110020BF022FDD3E700F10C0889
:1058A000012140460CF0BEFF01260421067040464F
:1058B0000CF0B8FF002305808670C370214640F6C7
:1058C0003540FFF75FFFBDE70437002000000020F0
:1058D000EE640100584B01001865010044650100A9
:1058E000F0B583B0C36800AFD9789A781E8842EAD1
:1058F00001223A8059791A79B4B242EA01227A80B7
:10590000D9799A79204642EA0122BA801A7A5B7ADA
:10591000012142EA0323FB8001F08EFF0546A8B96E
:105920006D4688B06A461E4B4FF4C251C2E9053439
:1059300003231C4842F8103F0BF0D1FC0221AD4676
:1059400020460BF05CFD0C37BD46F0BD394602F039
:1059500005F838B91E2120460BF051FD28460BF002
:10596000D3FEF0E70E2142F22000FFF749FC044687
:105970000028F3D00E210C300CF054FF00230680D9
:10598000C0F80A303B88214643807B888380BB88EF
:10599000C380FB88038142F22000FFF7F3FEDDE7BE
:1059A000B4610100584B01002DE9F04FDFF854813C
:1059B00087B0DFF8549100AFD8F80C3053486FF33C
:1059C0009433C8F80C3001F0DDFD451C4FF0FF3278
:1059D0004FF0FF3329464B4809F07AF860B140F6A2
:1059E000DE234A464A494B480AF032FA404080F3E7
:1059F00011884FF0030002DF4FF0030A414E15B942
:105A000008F056FDD8E7F368C3F38633022B60D95C
:105A1000042B68D1337B002B5ED1002200233E484B
:105A20000CF0A5FE044660B94FF427634A463B4993
:105A300038480AF00DFA404080F311884FF0030017
:105A400002DFDFF8DCB04FF0FF334FF0FF323548B4
:105A500008F0B8F8DBF838318BB1334B4FF4825192
:105A60007B610223314807F110023B610BF037FCE8
:105A7000DBF8380104F0ACFB0023CBF838312046CA
:105A80000CF0A6FECBF838012046FFF773FE00B3FA
:105A9000EB4688B06A46264B4FF4C251C2E9053046
:105AA0000323224842F8103F0BF019FCDD461D4845
:105AB00008F062F8204604F0E5FA0C221D4B1F2185
:105AC00002FB003022464088FFF7ACF9204604F084
:105AD0007FFB1436013D92E7012BFAD1306938384B
